{
  "contractName": "LearningContract",
  "abi": [
    {
      "constant": true,
      "inputs": [],
      "name": "owner",
      "outputs": [
        {
          "name": "",
          "type": "address"
        }
      ],
      "payable": false,
      "stateMutability": "view",
      "type": "function"
    },
    {
      "constant": true,
      "inputs": [],
      "name": "checkpointIpfsMap",
      "outputs": [
        {
          "name": "",
          "type": "uint256"
        }
      ],
      "payable": false,
      "stateMutability": "view",
      "type": "function"
    },
    {
      "constant": true,
      "inputs": [
        {
          "name": "",
          "type": "address"
        }
      ],
      "name": "filenames",
      "outputs": [
        {
          "name": "modelNumber",
          "type": "uint256"
        },
        {
          "name": "fileName",
          "type": "string"
        },
        {
          "name": "ipfsHash",
          "type": "string"
        }
      ],
      "payable": false,
      "stateMutability": "view",
      "type": "function"
    },
    {
      "inputs": [],
      "payable": false,
      "stateMutability": "nonpayable",
      "type": "constructor"
    },
    {
      "constant": false,
      "inputs": [
        {
          "name": "modelNumber",
          "type": "uint256"
        },
        {
          "name": "fileName",
          "type": "string"
        },
        {
          "name": "ipfsHash",
          "type": "string"
        }
      ],
      "name": "addFile",
      "outputs": [],
      "payable": false,
      "stateMutability": "nonpayable",
      "type": "function"
    },
    {
      "constant": true,
      "inputs": [],
      "name": "collateModels",
      "outputs": [
        {
          "name": "",
          "type": "bool"
        }
      ],
      "payable": false,
      "stateMutability": "view",
      "type": "function"
    },
    {
      "constant": true,
      "inputs": [
        {
          "name": "user",
          "type": "address"
        }
      ],
      "name": "getIpfsHashForUser",
      "outputs": [
        {
          "name": "",
          "type": "string"
        }
      ],
      "payable": false,
      "stateMutability": "view",
      "type": "function"
    },
    {
      "constant": true,
      "inputs": [
        {
          "name": "user",
          "type": "address"
        }
      ],
      "name": "getFileNameForUser",
      "outputs": [
        {
          "name": "",
          "type": "string"
        }
      ],
      "payable": false,
      "stateMutability": "view",
      "type": "function"
    },
    {
      "constant": true,
      "inputs": [
        {
          "name": "user",
          "type": "address"
        }
      ],
      "name": "getModelNumberForUser",
      "outputs": [
        {
          "name": "",
          "type": "uint256"
        }
      ],
      "payable": false,
      "stateMutability": "view",
      "type": "function"
    },
    {
      "constant": true,
      "inputs": [
        {
          "name": "index",
          "type": "uint256"
        }
      ],
      "name": "getRegisteredUsers",
      "outputs": [
        {
          "name": "",
          "type": "address"
        }
      ],
      "payable": false,
      "stateMutability": "view",
      "type": "function"
    },
    {
      "constant": true,
      "inputs": [],
      "name": "getRegisteredUsers",
      "outputs": [
        {
          "name": "",
          "type": "address[]"
        }
      ],
      "payable": false,
      "stateMutability": "view",
      "type": "function"
    }
  ],
  "bytecode": "0x608060405234801561001057600080fd5b50336000806101000a81548173ffffffffffffffffffffffffffffffffffffffff021916908373ffffffffffffffffffffffffffffffffffffffff1602179055506000600481905550610d74806100686000396000f3006080604052600436106100a4576000357c0100000000000000000000000000000000000000000000000000000000900463ffffffff16806302928139146100a957806303aba8cc146101625780636bc14d88146101b95780637073c072146102265780637a383d90146102925780638da5cb5b1461034e578063acbee236146103a5578063c7bcdb35146103d0578063da215eb8146104ff578063e132d6a51461052e575b600080fd5b3480156100b557600080fd5b5061016060048036038101908080359060200190929190803590602001908201803590602001908080601f0160208091040260200160405190810160405280939291908181526020018383808284378201915050505050509192919290803590602001908201803590602001908080601f01602080910402602001604051908101604052809392919081815260200183838082843782019150505050505091929192905050506105ea565b005b34801561016e57600080fd5b506101a3600480360381019080803573ffffffffffffffffffffffffffffffffffffffff169060200190929190505050610722565b6040518082815260200191505060405180910390f35b3480156101c557600080fd5b506101e46004803603810190808035906020019092919050505061076e565b604051808273ffffffffffffffffffffffffffffffffffffffff1673ffffffffffffffffffffffffffffffffffffffff16815260200191505060405180910390f35b34801561023257600080fd5b5061023b6107c1565b6040518080602001828103825283818151815260200191508051906020019060200280838360005b8381101561027e578082015181840152602081019050610263565b505050509050019250505060405180910390f35b34801561029e57600080fd5b506102d3600480360381019080803573ffffffffffffffffffffffffffffffffffffffff16906020019092919050505061084f565b6040518080602001828103825283818151815260200191508051906020019080838360005b838110156103135780820151818401526020810190506102f8565b50505050905090810190601f1680156103405780820380516001836020036101000a031916815260200191505b509250505060405180910390f35b34801561035a57600080fd5b50610363610933565b604051808273ffffffffffffffffffffffffffffffffffffffff1673ffffffffffffffffffffffffffffffffffffffff16815260200191505060405180910390f35b3480156103b157600080fd5b506103ba610958565b6040518082815260200191505060405180910390f35b3480156103dc57600080fd5b50610411600480360381019080803573ffffffffffffffffffffffffffffffffffffffff16906020019092919050505061095e565b604051808481526020018060200180602001838103835285818151815260200191508051906020019080838360005b8381101561045b578082015181840152602081019050610440565b50505050905090810190601f1680156104885780820380516001836020036101000a031916815260200191505b50838103825284818151815260200191508051906020019080838360005b838110156104c15780820151818401526020810190506104a6565b50505050905090810190601f1680156104ee5780820380516001836020036101000a031916815260200191505b509550505050505060405180910390f35b34801561050b57600080fd5b50610514610ab8565b604051808215151515815260200191505060405180910390f35b34801561053a57600080fd5b5061056f600480360381019080803573ffffffffffffffffffffffffffffffffffffffff169060200190929190505050610afd565b6040518080602001828103825283818151815260200191508051906020019080838360005b838110156105af578082015181840152602081019050610594565b50505050905090810190601f1680156105dc5780820380516001836020036101000a031916815260200191505b509250505060405180910390f35b6105f2610c81565b6105fb33610be1565b15156106795760033390806001815401808255809150509060018203906000526020600020016000909192909190916101000a81548173ffffffffffffffffffffffffffffffffffffffff021916908373ffffffffffffffffffffffffffffffffffffffff1602179055505060016004600082825401925050819055505b8381600001818152505082816020018190525081816040018190525080600260003373ffffffffffffffffffffffffffffffffffffffff1673ffffffffffffffffffffffffffffffffffffffff1681526020019081526020016000206000820151816000015560208201518160010190805190602001906106fb929190610ca3565b506040820151816002019080519060200190610718929190610ca3565b5090505050505050565b6000600260008373ffffffffffffffffffffffffffffffffffffffff1673ffffffffffffffffffffffffffffffffffffffff168152602001908152602001600020600001549050919050565b60006004548210151561078057600080fd5b60038281548110151561078f57fe5b9060005260206000200160009054906101000a900473ffffffffffffffffffffffffffffffffffffffff169050919050565b6060600380548060200260200160405190810160405280929190818152602001828054801561084557602002820191906000526020600020905b8160009054906101000a900473ffffffffffffffffffffffffffffffffffffffff1673ffffffffffffffffffffffffffffffffffffffff16815260200190600101908083116107fb575b5050505050905090565b6060600260008373ffffffffffffffffffffffffffffffffffffffff1673ffffffffffffffffffffffffffffffffffffffff1681526020019081526020016000206002018054600181600116156101000203166002900480601f0160208091040260200160405190810160405280929190818152602001828054600181600116156101000203166002900480156109275780601f106108fc57610100808354040283529160200191610927565b820191906000526020600020905b81548152906001019060200180831161090a57829003601f168201915b50505050509050919050565b6000809054906101000a900473ffffffffffffffffffffffffffffffffffffffff1681565b60015481565b6002602052806000526040600020600091509050806000015490806001018054600181600116156101000203166002900480601f016020809104026020016040519081016040528092919081815260200182805460018160011615610100020316600290048015610a105780601f106109e557610100808354040283529160200191610a10565b820191906000526020600020905b8154815290600101906020018083116109f357829003601f168201915b505050505090806002018054600181600116156101000203166002900480601f016020809104026020016040519081016040528092919081815260200182805460018160011615610100020316600290048015610aae5780601f10610a8357610100808354040283529160200191610aae565b820191906000526020600020905b815481529060010190602001808311610a9157829003601f168201915b5050505050905083565b6000338073ffffffffffffffffffffffffffffffffffffffff163373ffffffffffffffffffffffffffffffffffffffff16141515610af557600080fd5b600191505090565b6060600260008373ffffffffffffffffffffffffffffffffffffffff1673ffffffffffffffffffffffffffffffffffffffff1681526020019081526020016000206001018054600181600116156101000203166002900480601f016020809104026020016040519081016040528092919081815260200182805460018160011615610100020316600290048015610bd55780601f10610baa57610100808354040283529160200191610bd5565b820191906000526020600020905b815481529060010190602001808311610bb857829003601f168201915b50505050509050919050565b600080600090505b600454811015610c76578273ffffffffffffffffffffffffffffffffffffffff16600382815481101515610c1957fe5b9060005260206000200160009054906101000a900473ffffffffffffffffffffffffffffffffffffffff1673ffffffffffffffffffffffffffffffffffffffff161415610c695760019150610c7b565b8080600101915050610be9565b600091505b50919050565b6060604051908101604052806000815260200160608152602001606081525090565b828054600181600116156101000203166002900490600052602060002090601f016020900481019282601f10610ce457805160ff1916838001178555610d12565b82800160010185558215610d12579182015b82811115610d11578251825591602001919060010190610cf6565b5b509050610d1f9190610d23565b5090565b610d4591905b80821115610d41576000816000905550600101610d29565b5090565b905600a165627a7a7230582026d9ebdaf84c223886075c867515c69a38a4b117adffc42ca0f77a7fb2a0a27d0029",
  "source": "pragma solidity ^0.4.23;\n\ncontract LearningContract {\n\n    struct FileName {\n        uint modelNumber;\n        string fileName;\n        string ipfsHash;\n    }\n\n    address public owner;\n    uint public checkpointIpfsMap;\n    mapping(address => FileName) public filenames;\n    address[] registeredUsers;\n    uint noOfRegisteredUsers;\n\n    constructor () public {\n        owner = msg.sender;\n        noOfRegisteredUsers = 0;\n    }\n\n    modifier isOwner(address _owner) {\n        require(msg.sender == _owner);\n        _;\n    }\n\n    function checkExistence(address testAddress) private view returns (bool) {\n        for (uint i = 0; i < noOfRegisteredUsers; i++) {\n            if (registeredUsers[i] == testAddress) {\n                return true;\n            }\n        }\n        return false;\n    }\n\n\n    function addFile(uint modelNumber, string memory fileName, string memory ipfsHash) public {\n\n        if (!checkExistence(msg.sender)) {\n            registeredUsers.push(msg.sender);\n            noOfRegisteredUsers += 1;\n        }\n\n        FileName memory file;\n        file.modelNumber = modelNumber;\n        file.fileName = fileName;\n        file.ipfsHash = ipfsHash;\n        filenames[msg.sender] = file;\n\n    }\n\n\n    function collateModels() public view isOwner(msg.sender) returns (bool) {\n        return true;\n    }\n\n    function getIpfsHashForUser(address user) public view returns (string){\n        return filenames[user].ipfsHash;\n    }\n\n    function getFileNameForUser(address user) public view returns (string){\n        return filenames[user].fileName;\n    }\n\n    function getModelNumberForUser(address user) public view returns (uint){\n        return filenames[user].modelNumber;\n    }\n\n    function getRegisteredUsers(uint index) public view returns (address) {\n        require(index < noOfRegisteredUsers);\n        return registeredUsers[index];\n    }\n\n    function getRegisteredUsers() public view returns (address[]) {\n        return registeredUsers;\n    }\n\n\n}",
  "sourcePath": "/home/shreyas/Code/federated-learning/contracts/LearningContract.sol",
  "compiler": {
    "name": "solc",
    "version": "0.4.24+commit.e67f0147.Emscripten.clang"
  },
  "schemaVersion": "2.0.1",
  "updatedAt": "2018-12-15T19:33:48.906Z"
}